{
	"": {
		"HelloWorldContract": {
			"abi": [
				{
					"constant": false,
					"inputs": [
						{
							"name": "newWord",
							"type": "string"
						}
					],
					"name": "setWord",
					"outputs": [
						{
							"name": "",
							"type": "string"
						}
					],
					"payable": false,
					"type": "function",
					"stateMutability": "nonpayable"
				},
				{
					"constant": true,
					"inputs": [],
					"name": "getWord",
					"outputs": [
						{
							"name": "",
							"type": "string"
						}
					],
					"payable": false,
					"type": "function",
					"stateMutability": "view"
				}
			],
			"evm": {
				"bytecode": {
					"object": "6060604052604060405190810160405280600b81526020017f48656c6c6f20576f726c6400000000000000000000000000000000000000000081526020015060006000509080519060200190828054600181600116156101000203166002900490600052602060002090601f016020900481019282601f10608a57805160ff191683800117855560b8565b8280016001018555821560b8579182015b8281111560b7578251826000505591602001919060010190609b565b5b50905060df919060c3565b8082111560db576000818150600090555060010160c3565b5090565b50506103b5806100ef6000396000f360606040526000357c010000000000000000000000000000000000000000000000000000000090048063cd048de614610047578063ed40a8c81461010e57610042565b610002565b34610002576100a06004808035906020019082018035906020019191908080601f01602080910402602001604051908101604052809392919081815260200183838082843782019150505050505090909190505061018e565b60405180806020018281038252838181518152602001915080519060200190808383829060006004602084601f0104600302600f01f150905090810190601f1680156101005780820380516001836020036101000a031916815260200191505b509250505060405180910390f35b346100025761012060048050506102f9565b60405180806020018281038252838181518152602001915080519060200190808383829060006004602084601f0104600302600f01f150905090810190601f1680156101805780820380516001836020036101000a031916815260200191505b509250505060405180910390f35b60206040519081016040528060008152602001508160006000509080519060200190828054600181600116156101000203166002900490600052602060002090601f016020900481019282601f106101f157805160ff1916838001178555610222565b82800160010185558215610222579182015b82811115610221578251826000505591602001919060010190610203565b5b50905061024d919061022f565b80821115610249576000818150600090555060010161022f565b5090565b505060006000508054600181600116156101000203166002900480601f0160208091040260200160405190810160405280929190818152602001828054600181600116156101000203166002900480156102e85780601f106102bd576101008083540402835291602001916102e8565b820191906000526020600020905b8154815290600101906020018083116102cb57829003601f168201915b505050505090506102f4565b919050565b602060405190810160405280600081526020015060006000508054600181600116156101000203166002900480601f0160208091040260200160405190810160405280929190818152602001828054600181600116156101000203166002900480156103a65780601f1061037b576101008083540402835291602001916103a6565b820191906000526020600020905b81548152906001019060200180831161038957829003601f168201915b505050505090506103b2565b9056",
					"opcodes": "PUSH1 0x60 PUSH1 0x40 MSTORE PUSH1 0x40 PUSH1 0x40 MLOAD SWAP1 DUP2 ADD PUSH1 0x40 MSTORE DUP1 PUSH1 0xB DUP2 MSTORE PUSH1 0x20 ADD PUSH32 0x48656C6C6F20576F726C64000000000000000000000000000000000000000000 DUP2 MSTORE PUSH1 0x20 ADD POP PUSH1 0x0 PUSH1 0x0 POP SWAP1 DUP1 MLOAD SWAP1 PUSH1 0x20 ADD SWAP1 DUP3 DUP1 SLOAD PUSH1 0x1 DUP2 PUSH1 0x1 AND ISZERO PUSH2 0x100 MUL SUB AND PUSH1 0x2 SWAP1 DIV SWAP1 PUSH1 0x0 MSTORE PUSH1 0x20 PUSH1 0x0 SHA3 SWAP1 PUSH1 0x1F ADD PUSH1 0x20 SWAP1 DIV DUP2 ADD SWAP3 DUP3 PUSH1 0x1F LT PUSH1 0x8A JUMPI DUP1 MLOAD PUSH1 0xFF NOT AND DUP4 DUP1 ADD OR DUP6 SSTORE PUSH1 0xB8 JUMP JUMPDEST DUP3 DUP1 ADD PUSH1 0x1 ADD DUP6 SSTORE DUP3 ISZERO PUSH1 0xB8 JUMPI SWAP2 DUP3 ADD JUMPDEST DUP3 DUP2 GT ISZERO PUSH1 0xB7 JUMPI DUP3 MLOAD DUP3 PUSH1 0x0 POP SSTORE SWAP2 PUSH1 0x20 ADD SWAP2 SWAP1 PUSH1 0x1 ADD SWAP1 PUSH1 0x9B JUMP JUMPDEST JUMPDEST POP SWAP1 POP PUSH1 0xDF SWAP2 SWAP1 PUSH1 0xC3 JUMP JUMPDEST DUP1 DUP3 GT ISZERO PUSH1 0xDB JUMPI PUSH1 0x0 DUP2 DUP2 POP PUSH1 0x0 SWAP1 SSTORE POP PUSH1 0x1 ADD PUSH1 0xC3 JUMP JUMPDEST POP SWAP1 JUMP JUMPDEST POP POP PUSH2 0x3B5 DUP1 PUSH2 0xEF PUSH1 0x0 CODECOPY PUSH1 0x0 RETURN PUSH1 0x60 PUSH1 0x40 MSTORE PUSH1 0x0 CALLDATALOAD PUSH29 0x100000000000000000000000000000000000000000000000000000000 SWAP1 DIV DUP1 PUSH4 0xCD048DE6 EQ PUSH2 0x47 JUMPI DUP1 PUSH4 0xED40A8C8 EQ PUSH2 0x10E JUMPI PUSH2 0x42 JUMP JUMPDEST PUSH2 0x2 JUMP JUMPDEST CALLVALUE PUSH2 0x2 JUMPI PUSH2 0xA0 PUSH1 0x4 DUP1 DUP1 CALLDATALOAD SWAP1 PUSH1 0x20 ADD SWAP1 DUP3 ADD DUP1 CALLDATALOAD SWAP1 PUSH1 0x20 ADD SWAP2 SWAP2 SWAP1 DUP1 DUP1 PUSH1 0x1F ADD PUSH1 0x20 DUP1 SWAP2 DIV MUL PUSH1 0x20 ADD PUSH1 0x40 MLOAD SWAP1 DUP2 ADD PUSH1 0x40 MSTORE DUP1 SWAP4 SWAP3 SWAP2 SWAP1 DUP2 DUP2 MSTORE PUSH1 0x20 ADD DUP4 DUP4 DUP1 DUP3 DUP5 CALLDATACOPY DUP3 ADD SWAP2 POP POP POP POP POP POP SWAP1 SWAP1 SWAP2 SWAP1 POP POP PUSH2 0x18E JUMP JUMPDEST PUSH1 0x40 MLOAD DUP1 DUP1 PUSH1 0x20 ADD DUP3 DUP2 SUB DUP3 MSTORE DUP4 DUP2 DUP2 MLOAD DUP2 MSTORE PUSH1 0x20 ADD SWAP2 POP DUP1 MLOAD SWAP1 PUSH1 0x20 ADD SWAP1 DUP1 DUP4 DUP4 DUP3 SWAP1 PUSH1 0x0 PUSH1 0x4 PUSH1 0x20 DUP5 PUSH1 0x1F ADD DIV PUSH1 0x3 MUL PUSH1 0xF ADD CALL POP SWAP1 POP SWAP1 DUP2 ADD SWAP1 PUSH1 0x1F AND DUP1 ISZERO PUSH2 0x100 JUMPI DUP1 DUP3 SUB DUP1 MLOAD PUSH1 0x1 DUP4 PUSH1 0x20 SUB PUSH2 0x100 EXP SUB NOT AND DUP2 MSTORE PUSH1 0x20 ADD SWAP2 POP JUMPDEST POP SWAP3 POP POP POP PUSH1 0x40 MLOAD DUP1 SWAP2 SUB SWAP1 RETURN JUMPDEST CALLVALUE PUSH2 0x2 JUMPI PUSH2 0x120 PUSH1 0x4 DUP1 POP POP PUSH2 0x2F9 JUMP JUMPDEST PUSH1 0x40 MLOAD DUP1 DUP1 PUSH1 0x20 ADD DUP3 DUP2 SUB DUP3 MSTORE DUP4 DUP2 DUP2 MLOAD DUP2 MSTORE PUSH1 0x20 ADD SWAP2 POP DUP1 MLOAD SWAP1 PUSH1 0x20 ADD SWAP1 DUP1 DUP4 DUP4 DUP3 SWAP1 PUSH1 0x0 PUSH1 0x4 PUSH1 0x20 DUP5 PUSH1 0x1F ADD DIV PUSH1 0x3 MUL PUSH1 0xF ADD CALL POP SWAP1 POP SWAP1 DUP2 ADD SWAP1 PUSH1 0x1F AND DUP1 ISZERO PUSH2 0x180 JUMPI DUP1 DUP3 SUB DUP1 MLOAD PUSH1 0x1 DUP4 PUSH1 0x20 SUB PUSH2 0x100 EXP SUB NOT AND DUP2 MSTORE PUSH1 0x20 ADD SWAP2 POP JUMPDEST POP SWAP3 POP POP POP PUSH1 0x40 MLOAD DUP1 SWAP2 SUB SWAP1 RETURN JUMPDEST PUSH1 0x20 PUSH1 0x40 MLOAD SWAP1 DUP2 ADD PUSH1 0x40 MSTORE DUP1 PUSH1 0x0 DUP2 MSTORE PUSH1 0x20 ADD POP DUP2 PUSH1 0x0 PUSH1 0x0 POP SWAP1 DUP1 MLOAD SWAP1 PUSH1 0x20 ADD SWAP1 DUP3 DUP1 SLOAD PUSH1 0x1 DUP2 PUSH1 0x1 AND ISZERO PUSH2 0x100 MUL SUB AND PUSH1 0x2 SWAP1 DIV SWAP1 PUSH1 0x0 MSTORE PUSH1 0x20 PUSH1 0x0 SHA3 SWAP1 PUSH1 0x1F ADD PUSH1 0x20 SWAP1 DIV DUP2 ADD SWAP3 DUP3 PUSH1 0x1F LT PUSH2 0x1F1 JUMPI DUP1 MLOAD PUSH1 0xFF NOT AND DUP4 DUP1 ADD OR DUP6 SSTORE PUSH2 0x222 JUMP JUMPDEST DUP3 DUP1 ADD PUSH1 0x1 ADD DUP6 SSTORE DUP3 ISZERO PUSH2 0x222 JUMPI SWAP2 DUP3 ADD JUMPDEST DUP3 DUP2 GT ISZERO PUSH2 0x221 JUMPI DUP3 MLOAD DUP3 PUSH1 0x0 POP SSTORE SWAP2 PUSH1 0x20 ADD SWAP2 SWAP1 PUSH1 0x1 ADD SWAP1 PUSH2 0x203 JUMP JUMPDEST JUMPDEST POP SWAP1 POP PUSH2 0x24D SWAP2 SWAP1 PUSH2 0x22F JUMP JUMPDEST DUP1 DUP3 GT ISZERO PUSH2 0x249 JUMPI PUSH1 0x0 DUP2 DUP2 POP PUSH1 0x0 SWAP1 SSTORE POP PUSH1 0x1 ADD PUSH2 0x22F JUMP JUMPDEST POP SWAP1 JUMP JUMPDEST POP POP PUSH1 0x0 PUSH1 0x0 POP DUP1 SLOAD PUSH1 0x1 DUP2 PUSH1 0x1 AND ISZERO PUSH2 0x100 MUL SUB AND PUSH1 0x2 SWAP1 DIV DUP1 PUSH1 0x1F ADD PUSH1 0x20 DUP1 SWAP2 DIV MUL PUSH1 0x20 ADD PUSH1 0x40 MLOAD SWAP1 DUP2 ADD PUSH1 0x40 MSTORE DUP1 SWAP3 SWAP2 SWAP1 DUP2 DUP2 MSTORE PUSH1 0x20 ADD DUP3 DUP1 SLOAD PUSH1 0x1 DUP2 PUSH1 0x1 AND ISZERO PUSH2 0x100 MUL SUB AND PUSH1 0x2 SWAP1 DIV DUP1 ISZERO PUSH2 0x2E8 JUMPI DUP1 PUSH1 0x1F LT PUSH2 0x2BD JUMPI PUSH2 0x100 DUP1 DUP4 SLOAD DIV MUL DUP4 MSTORE SWAP2 PUSH1 0x20 ADD SWAP2 PUSH2 0x2E8 JUMP JUMPDEST DUP3 ADD SWAP2 SWAP1 PUSH1 0x0 MSTORE PUSH1 0x20 PUSH1 0x0 SHA3 SWAP1 JUMPDEST DUP2 SLOAD DUP2 MSTORE SWAP1 PUSH1 0x1 ADD SWAP1 PUSH1 0x20 ADD DUP1 DUP4 GT PUSH2 0x2CB JUMPI DUP3 SWAP1 SUB PUSH1 0x1F AND DUP3 ADD SWAP2 JUMPDEST POP POP POP POP POP SWAP1 POP PUSH2 0x2F4 JUMP JUMPDEST SWAP2 SWAP1 POP JUMP JUMPDEST PUSH1 0x20 PUSH1 0x40 MLOAD SWAP1 DUP2 ADD PUSH1 0x40 MSTORE DUP1 PUSH1 0x0 DUP2 MSTORE PUSH1 0x20 ADD POP PUSH1 0x0 PUSH1 0x0 POP DUP1 SLOAD PUSH1 0x1 DUP2 PUSH1 0x1 AND ISZERO PUSH2 0x100 MUL SUB AND PUSH1 0x2 SWAP1 DIV DUP1 PUSH1 0x1F ADD PUSH1 0x20 DUP1 SWAP2 DIV MUL PUSH1 0x20 ADD PUSH1 0x40 MLOAD SWAP1 DUP2 ADD PUSH1 0x40 MSTORE DUP1 SWAP3 SWAP2 SWAP1 DUP2 DUP2 MSTORE PUSH1 0x20 ADD DUP3 DUP1 SLOAD PUSH1 0x1 DUP2 PUSH1 0x1 AND ISZERO PUSH2 0x100 MUL SUB AND PUSH1 0x2 SWAP1 DIV DUP1 ISZERO PUSH2 0x3A6 JUMPI DUP1 PUSH1 0x1F LT PUSH2 0x37B JUMPI PUSH2 0x100 DUP1 DUP4 SLOAD DIV MUL DUP4 MSTORE SWAP2 PUSH1 0x20 ADD SWAP2 PUSH2 0x3A6 JUMP JUMPDEST DUP3 ADD SWAP2 SWAP1 PUSH1 0x0 MSTORE PUSH1 0x20 PUSH1 0x0 SHA3 SWAP1 JUMPDEST DUP2 SLOAD DUP2 MSTORE SWAP1 PUSH1 0x1 ADD SWAP1 PUSH1 0x20 ADD DUP1 DUP4 GT PUSH2 0x389 JUMPI DUP3 SWAP1 SUB PUSH1 0x1F AND DUP3 ADD SWAP2 JUMPDEST POP POP POP POP POP SWAP1 POP PUSH2 0x3B2 JUMP JUMPDEST SWAP1 JUMP ",
					"linkReferences": {}
				},
				"methodIdentifiers": {
					"getWord()": "ed40a8c8",
					"setWord(string)": "cd048de6"
				},
				"gasEstimates": {
					"creation": {
						"codeDepositCost": "189800",
						"executionCost": "infinite"
					},
					"internal": {},
					"external": {
						"getWord()": "infinite",
						"setWord(string)": "infinite"
					}
				}
			}
		}
	}
}